:020000020000FC
:040000000C9422003A
:04000C000C94C2008E
:100040000C94B7000FEF0DBF08E00EBF3F065B4FEB
:10005000666D7D077F67F89400E00093C10000E8BB
:100060000093610002E00093610004E005BD24E616
:1000700026BD01E000936E0001E00093680003E0FC
:1000800000936B000FEF07B900E008B910E014B956
:1000900013E015B90FEF0AB900E00BB9ECE4F0E09A
:1000A00064916BB900E010E023E030E040E050E004
:1000B00070E0449A459A78944436F1F7442701D089
:1000C000FBCF53955A3029F45527B395B63009F430
:1000D000BB27ECE4F0E0E50F6491449A45986BB9D6
:1000E0000E94AD00ECE4F0E0EB0F6491459A449877
:1000F0006BB90E94AD00089583958F7088B90895FB
:100100008A958F7088B9089590E093959030E9F7BB
:1001100090E093959030E9F790E093959030E9F76F
:1001200090E093959030E9F790E093959030E9F75F
:1001300090E093959030E9F790E093959030E9F74F
:1001400090E093959030E9F790E093959030E9F73F
:1001500090E093959030E9F70895E1E0CFEFDFEF7D
:10016000DA95F1F7CA95D9F7EA95C1F708953F9363
:100170003FB73F93A89A74E676BD43953F913FBF42
:100180003F911895AF93AFB7AF930E94840013B11E
:10019000121751F0212F10FF0E947C0011FF0E94C6
:1001A000800003E000936B00AF91AFBFAF91189553
:00000001FF
